:100000000C946A000C9492000C9492000C94920050
:100010000C9492000C9492000C9492000C94920018
:100020000C9492000C9492000C9428130C9492005F
:100030000C9492000C94AB120C9492000C949200CD
:100040000C9461120C9492000C942F120C940912CF
:100050000C9492000C9492000C9492000C949200D8
:100060000C9492000C9492000000000025002800DF
:100070002B0000000000240027002A0000000000E0
:1000800023002600290004040404040404040202DA
:100090000202020203030303030301020408102007
:1000A0004080010204081020010204081020000012
:1000B0000008000201000003040700000000000027
:1000C00000007C3C3E5E2B3D3F2F5B5D3B2C2A229B
:1000D0005C00A41311241FBECFEFD8E0DEBFCDBF5C
:1000E00011E0A0E0B1E0E8E9F1E302C005900D9273
:1000F000A638B107D9F725E0A6E8B1E001C01D9206
:10010000A534B207E1F710E0CAE6D0E004C02197B9
:10011000FE010E946917C936D107C9F70E9425144C
:100120000C94CA180C940000CF92DF92EF92FF92C9
:100130000F931F93CF93DF93880F991FFC01E55D09
:10014000FD4FA081B181440F551FFA01E55DFD4FC0
:10015000C081D181660F771FFB01E55DFD4F0190E6
:10016000F081E02DCD90DD90ED90FC901397008113
:10017000118122813381488159816A817B81ED918E
:10018000FC911197C082D182E282F382ED91FC91C1
:1001900011970483158326833783ED91FC91408763
:1001A000518762877387DF91CF911F910F91FF90E5
:1001B000EF90DF90CF900895AF92BF92CF92DF92F1
:1001C000EF92FF920F931F93CF93DF936C017B010C
:1001D0008B01040F151FEB015E01AE18BF08C0179D
:1001E000D10759F06991D601ED91FC910190F08110
:1001F000E02DC6010995892B79F7C501DF91CF91D3
:100200001F910F91FF90EF90DF90CF90BF90AF9034
:100210000895FC01538D448D252F30E0842F90E00C
:10022000821B930B541710F0CF96089501970895F1
:10023000FC01918D828D981761F0A28DAE0FBF2FBA
:10024000B11D5D968C91928D9F5F9F73928F90E010
:1002500008958FEF9FEF0895FC01918D828D98177F
:1002600031F0828DE80FF11D858D90E008958FEFBC
:100270009FEF0895FC01918D228D892F90E0805C85
:100280009F4F821B91098F739927089584E394E00F
:100290000E943A0121E0892B09F420E0822F089581
:1002A00080E090E0892B29F00E94460181110C9496
:1002B00000000895FC01A48DA80FB92FB11DA35A09
:1002C000BF4F2C91848D90E001968F739927848F76
:1002D000A689B7892C93A089B1898C918370806499
:1002E0008C93938D848D981306C00288F389E02D3A
:1002F00080818F7D80830895EF92FF920F931F93EB
:10030000CF93DF93EC0181E0888F9B8D8C8D9813C8
:100310001AC0E889F989808185FF15C09FB7F894D4
:10032000EE89FF896083E889F98980818370806420
:1003300080839FBF81E090E0DF91CF911F910F916B
:10034000FF90EF900895F62E0B8D10E00F5F1F4F7A
:100350000F731127E02E8C8D8E110CC00FB607FC89
:10036000FACFE889F989808185FFF5CFCE010E9417
:100370005A01F1CFEB8DEC0FFD2FF11DE35AFF4F2A
:10038000F0829FB7F8940B8FEA89FB8980818062A5
:10039000CFCFCF93DF93EC01888D8823B9F0AA8962
:1003A000BB89E889F9898C9185FD03C0808186FD30
:1003B0000DC00FB607FCF7CF8C9185FFF2CF80817F
:1003C00085FFEDCFCE010E945A01E9CFDF91CF9199
:1003D0000895833081F028F4813099F08230A9F0BB
:1003E00008958730A9F08830C9F08430B1F4809145
:1003F00080008F7D03C0809180008F778093800084
:10040000089584B58F7784BD089584B58F7DFBCF23
:100410008091B0008F778093B00008958091B000F4
:100420008F7DF9CF1F93CF93DF93282F30E0F90111
:10043000E255FF4F8491F901E656FF4FD491F9013F
:10044000EA57FF4FC491CC23A9F0162F81110E94C7
:10045000E901EC2FF0E0EE0FFF1FE859FF4FA591E7
:10046000B4918FB7F894EC91111108C0D095DE23A8
:10047000DC938FBFDF91CF911F910895DE2BF8CFD2
:10048000CF93DF9390E0FC01E656FF4F24918A570B
:100490009F4FFC0184918823D1F090E0880F991F31
:1004A000FC01EE58FF4FA591B491FC01E859FF4FB4
:1004B000C591D49161110EC09FB7F8948C91E22F31
:1004C000E0958E238C932881E223E8839FBFDF9100
:1004D000CF9108958FB7F894EC91E22BEC938FBFF6
:1004E000F6CF2FB7F89460911A0270911B02809199
:1004F0001C0290911D022FBF08958FB7F894809130
:1005000088018FBF089561E0FC0184810E9412027E
:100510008091870181111092870108958EBD00009E
:100520000DB407FEFDCF8EB508958FEF0C948E02AB
:100530000F931F93CF93DF93EC010E9471028B0105
:100540000E9495028F3F69F00E947102601B710B3F
:100550006C177D07A8F380E0DF91CF911F910F9179
:10056000089581E0F9CF8CBD9DBD0895CF93DF93B1
:10057000EC0180918701811109C081E0809387019E
:100580008091EC049091ED040E94B30260E08C81B4
:10059000DF91CF910C9412028F929F92AF92BF92F3
:1005A000FF920F931F93CF93DF93EC01F62E490137
:1005B0005A018E81882389F08F8198859C012F5F55
:1005C0003F4F38872F838230924018F40E94950263
:1005D000F3CFCE010E9483021E82CE010E94B6029A
:1005E0008CE291E00E9498028F2D80640E948E021E
:1005F00008E110E0D501C401002E04C0B695A7950E
:10060000979587950A94D2F70E948E020850110997
:10061000083F8FEF180771F785E9FF2021F028E0E8
:1006200087E8F2128FEF0E948E0210E00E9495027E
:100630008A8787FF04C01F3F11F01F5FF7CFDF914C
:10064000CF911F910F91FF90BF90AF909F908F908F
:100650000895AF92BF92CF92DF92EF92FF920F93E5
:100660001F93CF93DF93EC016901C801820F931FA1
:100670008130924050F58E81882379F0888199816C
:10068000AA81BB8184179507A607B70731F48F812C
:100690009885C816D90608F042C0488359836A83F2
:1006A0007B838B85833039F089E0440F551F661FAB
:1006B000771F8A95D1F79A01AB0161E1CE010E94C3
:1006C000CC02882389F083E08D83CE010E948302CF
:1006D00080E0DF91CF911F910F91FF90EF90DF901D
:1006E000CF90BF90AF9008950E9471025B010E946D
:1006F00095028A878F3F69F40E9471026A197B090B
:100700006D327140A0F38FE08D83CE010E94830291
:10071000DCCF8E3F89F418861F8281E08E838F8123
:1007200098858C159D0550F40E9495028F819885BF
:10073000019698878F83F3CF8DE0E6CF6701E00EB7
:10074000F11E0E949502F60181936F01EE15FF05DF
:10075000C1F78F819885080F191F18870F83898526
:10076000882319F001151240A0F08E81882389F0AA
:100770008F8198859C012F5F3F4F38872F83823070
:10078000924018F40E949502F3CFCE010E9483029A
:100790001E8281E09ECFEF92FF920F931F93CF9323
:1007A000DF93EC01790182E1411551056105710585
:1007B00099F08B85833039F089E0440F551F661F0F
:1007C000771F8A95D1F79A01AB0168E1CE010E94AB
:1007D000CC02882319F084E08D8330C08EEF0E9414
:1007E0008E0287018EEFF81AF80181918F010E9425
:1007F0008E020E151F05C1F78FEF0E948E028FEF3C
:100800000E948E020E9495028A878F71853089F43A
:1008100088E592E00E9498028823A9F020E030E069
:10082000A9016DE0CE010E94CC02882371F084E121
:10083000D3CF81E18D83CE010E948302CE010E943D
:10084000830280E00AC085E1C7CF0E949502811132
:10085000EECFCE010E94830281E0DF91CF911F9104
:100860000F91FF90EF900895CF93DF938091330223
:100870008823A9F1C0912902D0912A024091030155
:1008800050910401609105017091060124E332E06A
:10089000CE010E94CB03811104C080E0DF91CF9193
:1008A00008954091890150918A0160918B01709166
:1008B0008C01411551056105710579F024E332E0A1
:1008C000CE010E94CB03882341F31092890110923C
:1008D0008A0110928B0110928C011092330281E0F8
:1008E000DDCF8F929F92AF92BF92EF92FF920F93C4
:1008F0001F93CF934B015C01C42F80910301909112
:100900000401A0910501B091060188159905AA0579
:10091000BB0549F10E94340481110BC080E0CF91E6
:100920001F910F91FF90EF90BF90AF909F908F908D
:10093000089584E3E82E82E0F82E00E012E030E033
:1009400020E0B501A4018091290290912A020E9421
:100950002903882319F38092030190920401A09245
:100960000501B0920601409133024C2B40933302B3
:1009700081E0D5CF8F929F92AF92BF92CF92DF92BC
:10098000EF92FF92CF932EEE34E030932A02209321
:100990002902882309F46DC040E060E070E0CB01DB
:1009A0000E94710481110BC080E0CF91FF90EF9005
:1009B000DF90CF90BF90AF909F908F9008958091DF
:1009C000F2038F7789F78091FE039091FF03A09146
:1009D0000004B091010484369105A105B10520F30E
:1009E000C090FA03D090FB03E090FC03F090FD036D
:1009F000C114D104E104F104B9F240E0C701B60129
:100A00000E947104882381F280913F0290914002FC
:100A10008115924049F6A0914402AA2329F26091DF
:100A20004202709143026115710509F4BDCF209116
:100A30004102222309F4B8CFA0930C052093FE04B1
:100A400090E080E030E0E1E0F0E0C82FAF01082E58
:100A500002C0440F551F0A94E2F72417350769F0C6
:100A600041E0480F01968930910579F740930705D9
:100A70009BCFC12CD12C7601C0CF8093070520914C
:100A80004A0230914B0250E040E02115310541F41B
:100A9000209158023091590240915A0250915B02C4
:100AA0002093FF0430930005409301055093020505
:100AB00046015701860E971EA11CB11C80920D05A0
:100AC00090920E05A0920F05B0921005E09145029C
:100AD000F0914602F0931305E0931205B0E00E94F6
:100AE0003C17DC01CB01880D991DAA1DBB1D80930D
:100AF000140590931505A0931605B093170525E0EE
:100B0000EE0FFF1F2A95E1F7E150FE4FEF2FFF2771
:100B1000E6958E0F9F1FA11DB11D80930805909330
:100B20000905A0930A05B0930B05809047029090A9
:100B30004802B12CA12C8114910441F480905402FC
:100B400090905502A0905602B0905702C81AD90A48
:100B5000EA0AFB0AC80CD91CEA1CFB1C04C0F69468
:100B6000E794D794C794CA95D2F7C0920305D09260
:100B70000405E0920505F092060585EFC8168FE0A2
:100B8000D806E104F10428F48CE08093110581E09B
:100B90000CCF80E125EFC2162FEFD206E104F1045D
:100BA000A0F38091600290916102A0916202B091E5
:100BB00063028093140590931505A0931605B093D6
:100BC000170580E2E2CF4F925F926F927F928F92F1
:100BD0009F92AF92BF92CF92DF92EF92FF920F93CC
:100BE0001F93CF93DF93EC014230510561057105EE
:100BF00090F480E0DF91CF911F910F91FF90EF90E3
:100C0000DF90CF90BF90AF909F908F907F906F902C
:100C10005F904F90089589859A85AB85BC85019634
:100C2000A11DB11D84179507A607B70710F3CB8840
:100C3000DC88ED88FE888F89803109F042C0BB27AF
:100C4000A72F962F852F480159012A013B01C80E75
:100C5000D91EEA1EFB1E8091030190910401A09110
:100C60000501B0910601C816D906EA06FB0699F5FA
:100C70008F898031C1F5B301A201552766277727F7
:100C8000440F551F4C5C5D4FFA0191828082809128
:100C900033028160809333028A89823080F08D81B3
:100CA0009E81AF81B8858C0D9D1DAE1DBF1D8093AB
:100CB000890190938A01A0938B01B0938C0181E00C
:100CC00099CFDB01CA01E7E0B695A795979587957F
:100CD000EA95D1F7B8CF40E0C701B6010E94710490
:100CE0008111C6CF86CFB301A2014F775527662762
:100CF0007727440F551F440F551F4C5C5D4FFA0179
:100D000080829182A282B382C2CF8F929F92AF9251
:100D1000BF92CF92DF92EF92FF920F931F93CF93E8
:100D2000DF93FC0181859285A385B4850196A11D81
:100D3000B11D84179507A607B70770F480E0DF910F
:100D4000CF911F910F91FF90EF90DF90CF90BF90C8
:100D5000AF909F908F90089583889488A588B688D7
:100D60008789803189F5BB27A72F962F852FE90129
:100D70006A017B018F01BC01CD01680D791D8A1DBF
:100D80009B1D8090030190900401A0900501B090FC
:100D9000060186169706A806B90601F5F8018789A7
:100DA000803111F5DD24EE24FF24F601EE0FFF1F44
:100DB000EC5CFD4F80819181B0E0A0E08883998355
:100DC000AA83BB8381E0BBCFDB01CA01C7E0B69534
:100DD000A79597958795CA95D1F7C9CF40E00E940E
:100DE00071048111DBCFAACFE894C7F8DD24EE248B
:100DF000FF24F601EE0FFF1FEE0FFF1FEC5CFD4F0F
:100E000080819181A281B381BF70D8CF4F925F92D0
:100E10006F927F92AF92BF92CF92DF92EF92FF924A
:100E20000F931F93CF93DF9300D000D0CDB7DEB7E1
:100E30008C0149835A836B837C835901C12CD12C4B
:100E40007601412C82E0582E612C712C49815A8107
:100E50006B817C819E012F5F3F4FC8010E948506F8
:100E6000882339F1F8018585A301920104C0220F7E
:100E7000331F441F551F8A95D2F7DA01C901C80EE6
:100E8000D91EEA1EFB1E49815A816B817C818789AC
:100E9000803111F188EF9FEFAFEFBFE0481759079E
:100EA0006A077B0798F2F501C082D182E282F38261
:100EB00081E00F900F900F900F90DF91CF911F91D5
:100EC0000F91FF90EF90DF90CF90BF90AF907F9009
:100ED0006F905F904F90089588EF9FEFA0E0B0E093
:100EE000DDCFCF93DF93FC012581222321F080E029
:100EF000DF91CF910895EC0180911105803159F572
:100F000082E08583178A108E118E128E80911205D1
:100F100090911305B0E0A0E025E0880F991FAA1F6B
:100F2000BB1F2A95D1F7838B948BA58BB68B8AEF49
:100F300094E09C8F8B8F81E08C831E821F821886A9
:100F400019861A861B861C861D861E861F86188A91
:100F5000198A1A8ACDCF803251F683E08583409179
:100F60001405509115056091160570911705478B72
:100F7000508F618F728F9F012D5E3F4F8AEF94E0FB
:100F80000E9406078111D3CFB2CF8F929F92AF926A
:100F9000BF92CF92DF92EF92FF920F931F93CF9366
:100FA000DF93EC018D8181110EC080E0DF91CF9144
:100FB0001F910F91FF90EF90DF90CF90BF90AF9077
:100FC0009F908F9008950B891C892D893E89041765
:100FD00015072607370748F34A015B01823031F4D1
:100FE0008A869B86AC86BD8681E0E0CF8114910421
:100FF000A104B10449F41E821F82188619861A863C
:101000001B861C861D86F0CF0A851B852C853D8599
:10101000EB8DFC8D858590E00996B901A8014150C2
:10102000510961097109082E04C076956795579595
:1010300047950A94D2F775016401E1E0CE1AD10810
:10104000E108F10804C0F694E794D794C7948A9510
:10105000D2F7C416D506E606F70620F0012B022BC0
:10106000032B11F58F89988DA98DBA8D8E839F835F
:10107000A887B9878E010A5F1F4FC114D104E1040C
:10108000F10409F4ADCF4E815F81688579859801BF
:101090008B8D9C8D0E94850691E0C91AD108E108CC
:1010A000F1088111EACF81CFC41AD50AE60AF70AFE
:1010B000E1CF2091EA043091EB042115310541F094
:1010C000AB01BC01C9010E94C50791E0811101C0BB
:1010D00090E0892F08953F924F925F926F927F9296
:1010E0008F929F92AF92BF92CF92DF92EF92FF9238
:1010F0000F931F93CF93DF93CDB7DEB72C970FB627
:10110000F894DEBF0FBECDBF5C01DC015B968D9015
:101110009C905C9716964D905D906D907C90199781
:10112000411451046104710409F468C0BFEF4B1A03
:101130005B0A6B0A7B0A312CF40181859285A385B9
:10114000B4859C01AD012F5F3F4F4F4F5F4F298703
:101150003A874B875C87730162011D821E821F8262
:101160001886F40181859285A385B4852D813E8101
:101170004F815885281739074A075B0708F056C082
:1011800089859A85AB85BC858C159D05AE05BF0507
:1011900050F482E0C82ED12CE12CF12C92E0492EA3
:1011A000512C612C712C9E012F5F3F4FB701A6017E
:1011B000C4010E9485068823C9F189819A81AB8187
:1011C000BC81892B8A2B8B2B09F1260137019FEFDC
:1011D000491A590A690A790A2D813E814F81588539
:1011E0002F5F3F4F4F4F5F4F2D833E834F83588775
:1011F0003FEFC31AD30AE30AF30AB3CFF4014080E6
:101200005180628073803324339496CFC414D50404
:10121000E604F70409F70FEF1FEF2FEF3FE0B701E8
:10122000A601C4010E94E305811119C080E02C963B
:101230000FB6F894DEBF0FBECDBFDF91CF911F91E7
:101240000F91FF90EF90DF90CF90BF90AF909F9065
:101250008F907F906F905F904F903F900895F50131
:10126000468157816085718541155105610571057C
:1012700039F097018601C4010E94E3058823B1F289
:10128000D5011696CD92DD92ED92FC9219973320FE
:1012900051F0D701C6010196A11DB11DF401808353
:1012A0009183A283B383F5018789908DA18DB28D3F
:1012B000892B8A2B8B2B39F4C78AD08EE18EF28E44
:1012C00084818068848381E0B2CF2F923F924F92D5
:1012D0005F926F927F928F929F92AF92BF92CF92C6
:1012E000DF92EF92FF920F931F93CF93DF93EC0166
:1012F0005B012A018D81811115C08FEF9FEFDF9176
:10130000CF911F910F91FF90EF90DF90CF90BF9002
:10131000AF909F908F907F906F905F904F903F9095
:101320002F9008958C8180FFE8CF0B891C892D892F
:101330003E894A855B856C857D85C201B0E0A0E071
:1013400068017901C41AD50AE60AF70AC816D9064F
:10135000EA06FB0618F42801441A550A42011E0148
:1013600026E0220E311C8114910409F4B3C04A8591
:101370005B856C857D856A0181E0D8228B8D9C8D93
:101380008A019B01E9E03695279517950795EA951F
:10139000D1F7ED81E230E1F5FC01628D738D848D32
:1013A000958D600F711F821F931F612C22E0722E9A
:1013B0006C187D088614970408F434012C8126FDEE
:1013C00004C06114F2E07F0671F4009103011091F2
:1013D000040120910501309106010617170728071F
:1013E000390709F053C040E00E947104882309F4D2
:1013F00084CFC6018C5C9D4FD5019C01260D371D05
:10140000FC012E173F0709F460C041914D93F9CFBD
:10141000FC0174807A947022C114D10471F47110AB
:101420000CC0452B462B472B39F58F89988DA98DFC
:10143000BA8D8E839F83A887B987EB8DFC8D6E81D3
:101440007F81888599856250710981099109258577
:1014500004C0660F771F881F991F2A95D2F706854B
:10146000178520893189600F711F821F931F670DB7
:10147000711D811D911D99CF4E815F816885798590
:1014800091010E9485068111D8CF37CF7501830164
:101490009601AB01BC018091290290912A020E9421
:1014A0002903882309F429CFA60CB71C8A859B85BC
:1014B000AC85BD85860D971DA11DB11D8A879B87B3
:1014C000AC87BD87861897084ECF281B390BA20E14
:1014D000B31EECCFC20113CFCF93DF93EC018D810C
:1014E000882389F18C8187FF2AC06E857F85888952
:1014F000998941E00E947104882329F1EA8980E2F8
:10150000E89FF0011124EC5CFD4F3097E1F08D81F4
:10151000823040F48B899C89AD89BE89848F958FF8
:10152000A68FB78F8F89988D938F828F8F89988D93
:10153000A98DBA8DB58BA48B8C818F778C83DF912D
:10154000CF910C94340480E0DF91CF910895CF9334
:10155000DF93EC010E946C0A882311F01D8281E068
:10156000DF91CF9108952F923F924F925F926F92A9
:101570007F928F929F92AF92BF92CF92DF92EF9223
:10158000FF920F931F93CF93DF9300D000D0CDB77E
:10159000DEB78C015B011A01DC0115968C91159761
:1015A000813009F0C8C014968C9181FFC4C082FDBF
:1015B000AEC06101D8011A964D915D916D917C91FB
:1015C0001D97C114D10409F429C15B968D919C919A
:1015D0005C97FC0174802FEF270D2A013B0139E055
:1015E00076946794579447943A95D1F7722E742065
:1015F0007A01F1E0FF22711020C0E114F104E9F456
:1016000016964D915D916D917C91199741155105FB
:101610006105710509F098C057968D919D910D90C7
:10162000BC91A02D0097A105B10509F0AFC0C8017C
:101630000E946B08882309F47EC080E092E08E1936
:101640009F0946018C159D0508F44C01D8015B9655
:101650004D915C915C9716968D919D910D90BC91EA
:10166000A02D0297A109B109FA01258504C0880FB0
:10167000991FAA1FBB1F2A95D2F7468557856089F7
:101680007189840F951FA61FB71F9C01AD01270DFF
:10169000311D411D511D29013A01811432E093068B
:1016A00009F07AC08091030190910401A091050195
:1016B000B091060184159505A605B70559F48FEF7D
:1016C0009FEFDC018093030190930401A093050137
:1016D000B09306019501B301A20180912902909176
:1016E0002A020E94CB03882331F19EEFB91AC81851
:1016F000D908F80182859385A485B585880D991D43
:10170000A11DB11D82879387A487B58753CFF801A8
:10171000438954896589768982859385A485B585B1
:10172000481759076A077B0709F443CFC8010E948D
:10173000C50781113ECF81E090E0D80113969C93BC
:101740008E93129780E007C09E012F5F3F4F0E944B
:101750008506811102C090E077C089819A81AB81B2
:10176000BC81F801238D348DF901278948EF5FEFA3
:1017700060E070E0203121F048EF5FEF6FEF7FE035
:1017800084179507A607B70708F051CFF80186839D
:101790009783A087B18751CFE114F10491F5D80167
:1017A0001A964D915D916D917C911D9753968D91F7
:1017B0009D910D90BC91A02D481759076A077B0792
:1017C00000F10E943404882309F4B5CF409203014C
:1017D00050920401609205017092060180913302DB
:1017E00081608093330297012C5C3D4FD501C90184
:1017F000880D991DF9018E179F0759F04D9141935E
:10180000FACF41E0C301B2010E9471048111EBCF14
:1018100092CF821B930BA80EB91E69CFF801838962
:101820009489A589B68984179507A607B70738F460
:101830008481438B548B658B768B80688483F8011D
:10184000848183FD18C0C1010F900F900F900F90FD
:10185000DF91CF911F910F91FF90EF90DF90CF908C
:10186000BF90AF909F908F907F906F905F904F90C0
:101870003F902F900895C8010E946C0A882309F4B4
:101880005ACFE1CFCF93DF931F92CDB7DEB76983F5
:1018900041E050E0BE016F5F7F4F0E94B30A0F909E
:1018A000DF91CF910895FC01DB0112968D919C91FF
:1018B00013979383828381E491E0918380831496CC
:1018C0008C911497848315968C9115978583169621
:1018D0004D915D916D917C911997468357836087F7
:1018E00071871A964D915D916D917C911D974287FC
:1018F0005387648775871E964D915D916D917C919C
:10190000519746875787608B718B52968C9152976F
:10191000828B53964D915D916D917C915697438B3F
:10192000548B658B768B57964D915D916D917C9123
:101930005A97478B508F618F728F5B968D919C91D8
:10194000948F838F08950895FC01818D928D009767
:1019500011F00C946C0A0895DC015996ED91FC91FC
:101960003097B9F083899489A589B68942855385D2
:1019700064857585841B950BA60BB70B811520E834
:101980009207A105B10538F08FEF9FE7A0E0B0E026
:10199000089590E080E00895CF93DF93EC01E98D06
:1019A000FA8D309749F481E090E09B838A8390E040
:1019B00080E0DF91CF91089513821282898D9A8DF4
:1019C0000E94B30AE98DFA8D22813381232B59F7C6
:1019D000F0CFCF93DF931F92CDB7DEB76983DC01E1
:1019E000ED91FC910280F381E02D41E050E0BE01D9
:1019F0006F5F7F4F09950F90DF91CF910895CF933F
:101A0000DF931F92CDB7DEB741E050E0BE016F5FBC
:101A10007F4F0E946509019731F4898190E00F9012
:101A2000DF91CF9108958FEF9FEFF9CFFC01818D6A
:101A3000928D009711F00C94FF0C8FEF9FEF08959B
:101A40000F931F93CF93DF93EC01898D9A8D10E054
:101A500000E0009799F00E94FF0C8C010F3F1007E7
:101A600069F0898D9A8DFC01428553856485758561
:101A700041505109610971090E94C507C801DF91F0
:101A8000CF911F910F91089590E080E00895E0912B
:101A90003705F0913805E60FF71F81E08083089540
:101AA000E0913B05F0913C05E80FF91F20812223CE
:101AB00049F02091390530913A05820F931F21E0BA
:101AC000FC01208389E491E008950F931F93CF9345
:101AD000DF938C018CE090E00E947E17EC010E9465
:101AE000650DCE0104960E94650DCE0108960E94F8
:101AF000650DF801D183C083DF91CF911F910F91C4
:101B000008950F931F93CF93DF93EC0180E2689FBA
:101B1000F0011124EC5CFD4F6A8B809103019091E0
:101B20000401A0910501B09106018E879F87A88BC3
:101B3000B98B0489158930E020E09801112700272E
:101B40000F8B188F298F3A8F828D938DB0E0A0E094
:101B5000AC01BD01402B512B622B732B4F8B588F47
:101B6000698F7A8F83858871A9F4848D958DA68D70
:101B7000B78D8B8B9C8BAD8BBE8B81E08D8381E091
:101B80008C831E821F82188619861A861B861C86E5
:101B90001D8603C0803131F080E0DF91CF911F912D
:101BA0000F9108959E012D5E3F4F8B8D9C8D0E945D
:101BB0000607882389F384E0E1CFAF92BF92CF92EA
:101BC000DF92EF92FF920F931F93CF93DF93CDB7E6
:101BD000DEB72B970FB6F894DEBF0FBECDBF6C01FA
:101BE000FE013196CE010C967F0120E22193E81789
:101BF000F907E1F7DA0120E037E09D91B92E99234A
:101C0000A9F19E32B9F43A3091F480E02B960FB6E8
:101C1000F894DEBF0FBECDBFDF91CF911F910F9122
:101C2000FF90EF90DF90CF90BF90AF90089528E0A5
:101C30003AE0E3CFE2ECF0E08491882321F03196A2
:101C40009813FACFE2CF321700F38FED890F8E355C
:101C5000E0F68FE9890F8A3118F440EEB42EB90E00
:101C6000F701E20FF11DB0822F5FC7CF898180326B
:101C700061F28B01FB01838D948DF601948F838F2C
:101C8000FB0116821782108611861286138614862F
:101C90001586F80182859385A485B5854389548985
:101CA0006589768984179507A607B70708F0ADCF31
:101CB00025E0B695A795979587952A95D1F7F82FA2
:101CC000FF70AF2EF8018581823008F49ECFC801E5
:101CD0000E94FF0C97FD99CFF80182859385A4851A
:101CE000B5854F96A11DB11D82879387A487B587BF
:101CF000F0E2AF9EB00111246C5C7D4F611571055F
:101D000009F483CFFB018081882309F1853E19F412
:101D1000B11032C01EC04BE050E0C7010E94A318B2
:101D2000892B09F0B6CF6A2DC6012B960FB6F89411
:101D3000DEBF0FBECDBFDF91CF911F910F91FF90FE
:101D4000EF90DF90CF90BF90AF900C94810DB110C9
:101D50005CCFF601A28A8091030190910401A091C9
:101D60000501B091060186879787A08BB18BFB0197
:101D70008081882309F449CFBB24B3948ACF809112
:101D8000EA049091EB04009761F00E94A70A809109
:101D9000EA049091EB040E941A181092EB0410923E
:101DA000EA040895FC0101900020E9F73197AF01A2
:101DB000481B590BBC0184E394E00C94DC00EF92C7
:101DC000FF920F931F93CF93DF93EC017B018A0166
:101DD0001B821A8288EE93E0A0E0B0E08C839D83A2
:101DE000AE83BF838FE291E0998388838DE190E099
:101DF0000E947E179A8F898F009779F02DE1F70165
:101E0000DC0101900D922A95E1F74CE050E0B80119
:101E1000CE010C960E94BB18188EDF91CF911F91B6
:101E20000F91FF90EF9008952F923F924F925F9203
:101E30006F927F928F929F92AF92BF92CF92DF92DA
:101E4000EF92FF920F931F93CF93DF93CDB7DEB73F
:101E5000C457D1090FB6F894DEBF0FBECDBF3C0109
:101E6000FC0182819381009711F00E94D20E82E5DD
:101E700091E00E94D20EF301A280B38090912002E3
:101E800080912702981709F471C010928D018091FA
:101E90006F008E7D80936F000E94BF0E8091800046
:101EA00090E0880F892F881F990B0197C9F58091C1
:101EB00088009091890050E040E020912502309107
:101EC00026024217530760F570E060E097FD05C0F9
:101ED000B9018217930708F4BC0170938B006093DB
:101EE0008A0070E060E097FD05C0B9018217930792
:101EF00008F4BC0170938900609388002253310973
:101F00006AE070E0E0918400F0918500E217F30749
:101F1000C8F361507109B1F74F5F5F4F0197CDCFA3
:101F200080910201806280930201109281001092E0
:101F3000800061E0809120020E9440028091200296
:101F4000863009F44FC08E3209F44EC0853009F056
:101F50004DC081E0809391018DB581608DBD8CB5C0
:101F60008C7F8CBD809120028093270210928D017E
:101F700080916F008E7D80936F000E94BF0E19A22A
:101F800018A281E491E09F8F8E8F1BA21C821B827E
:101F90009A8389831E824E01FEE18F0E911CC4013B
:101FA0000E94710765018E010F5F1F4F2401180108
:101FB0006FE270E0C6010E94B018009709F465C096
:101FC000F60120812F32A9F4FFEFCF1ADF0A902FFC
:101FD000812F8201492E582E942D852D2801092FFD
:101FE000182FE6CF82E0B6CF83E0B4CF10929101F4
:101FF000B3CF8C198D3008F08CE0E82EF12CA701BE
:10200000B601CE01885A9F4F0E94BB18E8E5F0E068
:10201000EC0FFD1FEE0DFF1D1082C8010E94A70AE4
:10202000F8018581882311F11EAE1DAE81E491E097
:102030009CAF8BAF21961FAE2197E5968EAD9FADDD
:10204000E597A80EB91EF501808181112BC0BE0154
:10205000655C7F4FC1010E94530C45E551E0B10121
:10206000CE01885A9F4F0E94DF0E43C0AE01485AEE
:102070005F4FB201C8010E94DD0D8823A9F2CE0C8A
:10208000DF1CC2010E94A70AA7CFB6016A197B090B
:10209000E5967FAF6EAFE597B201CE01CB960E9479
:1020A000530CCBCF19A218A281E491E09F8F8E8FA1
:1020B0001BA221968FAD2197811158C16C961FAE3E
:1020C0001EAE6C9788EE93E0A0E0B0E0A0968CAFD7
:1020D0009DAFAEAFBFAFA0978FE291E06A969FAF82
:1020E0008EAF6A97E3961FAE1EAEE397A5961FAE1E
:1020F000A5976C968EAD9FAD6C979093D40480930A
:10210000D304A0968CAD9DADAEADBFADA09780932E
:10211000D5049093D604A093D704B093D804A49682
:102120008CAD9DADAEADBFADA4978093D904909317
:10213000DA04A093DB04B093DC04A8E5B0E0AC0FB4
:10214000BD1F1C96EDEDF4E08D91819364E0EA3EB5
:10215000F607D1F7E3968EAD9FADE3979093EB042E
:102160008093EA0468E070E080E090E00E94590803
:1021700080910D0190910E01A0910F01B09110017D
:1021800089839A83AB83BC8381017E0175E0E70E6E
:10219000F11C81ED94E00E94160DF80121918F0150
:1021A000022E000C330B8217930719F4EE16FF066C
:1021B00081F768E170E080E090E00E94590881EDCD
:1021C00094E00E94160D909324028093230281EDE7
:1021D00094E00E94160D20E0382F80912302909108
:1021E0002402282B392B30932402209323026CE203
:1021F00070E080E090E00E94590880E490E09093C5
:102200008F0180938E0181E080938D018091020186
:10221000982F9F77909302012091230230912402FE
:102220002B3F3F4A30F020EC3DE5309324022093D1
:102230002302209123023091240250E040E086FFE7
:10224000A9C060E075E38CE090E00E941D176AE091
:10225000629FC001639F900D11249093260280938A
:10226000250281ED94E00E94160D8C0181ED94E031
:102270000E94200D800F911F97FD019695958795DF
:1022800030911F02432F032E000C550B13160CF038
:1022900086C04091880050918900BA0102C07695AD
:1022A00067953A95E2F79B01992750E040E028179F
:1022B000390708F081C02F5F3F4F8217930708F45A
:1022C0009C01FA01EE56FE4F20834F5F5F4F403472
:1022D000510589F750E040E02F5F3F4F8217930789
:1022E00008F49C01FA01EE52FE4F20834F5F5F4FCE
:1022F0004034510589F71092130210920001109298
:10230000010110921202F894809125029091260208
:10231000909387008093860082EB8093800089E110
:102320008093810081E280936F007894E0913F0573
:10233000F091400571826082CC58DF4F0FB6F8945F
:10234000DEBF0FBECDBFDF91CF911F910F91FF90E8
:10235000EF90DF90CF90BF90AF909F908F907F9045
:102360006F905F904F903F902F900895A501BE0110
:10237000655C7F4FC4010E94DD0D882309F49ECE69
:10238000CE01CB960E94A70AB401C1010E94530C52
:10239000A50165CE60E07AE688E190E056CF209115
:1023A00088003091890051954195510902C0220F52
:1023B000331F4A95E2F778CFB90161507109681768
:1023C000790718F12115310509F09B01FA01EE5644
:1023D000FE4F20834F5F5F4F4034510569F750E057
:1023E00040E0B901615071096817790780F0211543
:1023F000310509F09B01FA01EE52FE4F20834F5F39
:102400005F4F4034510569F776CF9C01DFCF9C01C7
:10241000F2CF1F920F920FB60F9211242F933F937A
:102420004F935F936F937F938F939F93AF93BF93DC
:10243000EF93FF9384E394E00E945A01FF91EF91A0
:10244000BF91AF919F918F917F916F915F914F91CC
:102450003F912F910F900FBE0F901F9018951F92D4
:102460000F920FB60F9211242F938F939F93EF9398
:10247000FF93E0914404F09145048081E0914A0487
:10248000F0914B0482FD1BC0908180914D048F5FC1
:102490008F7320914E04821741F0E0914D04F0E0DB
:1024A000EC5CFB4F958F80934D04FF91EF919F91D2
:1024B0008F912F910F900FBE0F901F9018958081D4
:1024C000F4CF1F920F920FB60F9211242F933F93C8
:1024D0008F939F93AF93BF9380911A0290911B02A9
:1024E000A0911C02B0911D023091190223E0230F2C
:1024F0002D3758F50196A11DB11D20931902809327
:102500001A0290931B02A0931C02B0931D028091AB
:10251000150290911602A0911702B091180201962F
:10252000A11DB11D8093150290931602A09317026E
:10253000B0931802BF91AF919F918F913F912F91CE
:102540000F900FBE0F901F90189526E8230F02964C
:10255000A11DB11DD2CF1F920F920FB60F92112461
:102560002F933F934F935F938F939F93EF93FF939B
:102570008091020186FD3FC020911F02422F022E52
:10258000000C550B27FF4FC08091130220911202BF
:1025900030E4839FC00111248E569E4F820F911DFF
:1025A000FC01808190E051954195510902C09595BB
:1025B00087954A95E2F790938B0080938A009093D9
:1025C000890080938800809112028F5F80931202AD
:1025D000809112028034D0F010921202E091130226
:1025E000F0E0E050FF4F91E0908380911302892743
:1025F000809313020BC08091140291E0892780938D
:10260000140280911402882309F4B6CFFF91EF9150
:102610009F918F915F914F913F912F910F900FBE9E
:102620000F901F9018958091130230911202F0E4E0
:102630008F9FC00111248E569E4F830F911DFC0168
:10264000808190E002C0880F991F2A95E2F7B3CFEE
:102650001F920F920FB60F9211242F933F934F9317
:102660005F936F937F938F939F93AF93BF93EF93FA
:10267000FF93E091130291E0E927F0E0E050FF4F73
:1026800080818823B9F1809113028927809390017A
:1026900080916F008F7D80936F00789481ED94E03E
:1026A0000E94AC0C20918E0130918F0128173907C0
:1026B00090F18091020183FF0CC06CE270E080E039
:1026C00090E00E94590880916F00806280936F00B3
:1026D00011C080916F008E7D80936F00E091EA04BD
:1026E000F091EB04309721F0858181110E94BF0E9B
:1026F00010928D01FF91EF91BF91AF919F918F91BA
:102700007F916F915F914F913F912F910F900FBEED
:102710000F901F901895609190018091EA0490911C
:10272000EB04009751F020E4629FB00111246E5633
:102730007E4F40E450E00E946509E0919001F0E096
:10274000E050FF4F1082BFCFE4E3F4E01382128227
:1027500088EE93E0A0E0B0E084839583A683B783FE
:102760002DE131E03183208325EC30E0358724876B
:1027700024EC30E03787268720EC30E0318B208B4B
:1027800021EC30E0338B228B22EC30E0358B248B34
:1027900026EC30E0378B268B118E128E138E148E22
:1027A000E1EDF4E01382128284839583A683B783DC
:1027B0008FE291E091838083128E118E1486ECEE6D
:1027C000F4E080E580831182EEEEF4E0158216825B
:1027D0001186138682E090E0A0E0B0E084879587C0
:1027E000A687B78713A215A614A681E491E093A744
:1027F00082A717A68AE090E00E947E17FC01138250
:1028000011821082148215821682178290934005DD
:1028100080933F0580913D0590913E0590933C0546
:1028200080933B059C012F5F3F4F30933A052093E7
:1028300039052F5F3F4F30933805209337050596B4
:1028400090933E0580933D050895CF93DF93CDB7D8
:10285000DEB7A1970FB6F894DEBF0FBECDBF789458
:1028600084B5826084BD84B5816084BD85B5826095
:1028700085BD85B5816085BD80916E008160809346
:102880006E001092810080918100826080938100AF
:1028900080918100816080938100809180008160BF
:1028A000809380008091B10084608093B10080911A
:1028B000B00081608093B00080917A008460809342
:1028C0007A0080917A00826080937A0080917A0009
:1028D000816080937A0080917A00806880937A008A
:1028E0001092C100E0914404F091450482E080839D
:1028F000E0914004F09141041082E0914204F09193
:1029000043048FEC808310924C04E0914804F091D2
:10291000490486E08083E0914604F0914704808179
:1029200080618083E0914604F09147048081886053
:102930008083E0914604F091470480818068808321
:10294000E0914604F091470480818F7D808389E087
:102950008093200280911D05882321F088E195E075
:102960000E94A70A1092F9041092F7041092F4043E
:102970001092F3048AE08093F2040E9471028B01AA
:1029800061E08091F2040E94400261E08091F204D3
:102990000E941202FFB6F89480911E02811127C096
:1029A000E0E9F0E08491E4EAF0E09491E82FF0E0CF
:1029B000EE0FFF1FEE58FF4FA591B491EC91E92364
:1029C00021F461E08AE00E94120261E08AE00E9444
:1029D00040028CB580618CBD8CB580648CBD61E09B
:1029E0008DE00E94400261E08BE00E9440028091F5
:1029F0001E028F5F80931E02FFBE82E58093EC046F
:102A00001092ED048091EC049091ED040E94B302C9
:102A1000FAE0FF2E8FEF0E948E02FA94F110FACFA7
:102A20008EEE94E00E94B60220E030E0A90160E062
:102A30008EEE94E00E94CC02F82E8093F8042224BB
:102A400023948215B9F00E947102601B710B613DE5
:102A5000774050F381E08093F3048EEE94E00E947F
:102A600083028DE791E00E94D20E82E591E00E9400
:102A7000D20E33C12AEA31E040E050E068E08EEE49
:102A800094E00E94CC0282FF2AC0F092F904809167
:102A9000F904C12CD12C7601823029F4C12CD12C1F
:102AA000E12C70E4F72E20E030E0A90167E38EEE20
:102AB00094E00E94CC02A701960169E28EEE94E0B8
:102AC0000E94CC028093F8048823D1F00E94710206
:102AD000601B710B613D774030F388E0BCCFE4E0D0
:102AE000FE2E0E9495028093F804FA94F110F9CF1B
:102AF0008A3A11F082E0AFCF82E08093F904C7CF29
:102B00008091F9048230D1F420E030E0A9016AE339
:102B10008EEE94E00E94CC02882311F086E09BCFD9
:102B20000E949502807C803C19F483E08093F90434
:102B30000E9495020E9495020E9495028EEE94E0FA
:102B40000E94830280E58093EC041092ED0481E002
:102B50000E94BA04882309F436C188E195E00E94F6
:102B60007107882309F47DCF87E591E00E94D20E9A
:102B700000913F051091400584E090E00E947E178F
:102B80007C0182E691E0F701938382838CE090E000
:102B90000E947E176C010E94650DC60104960E947A
:102BA000650DC60108960E94650DF701D182C082AD
:102BB000F0922E02E0922D0284E090E00E947E17B7
:102BC0005C018BE691E0F501938382838CE090E0D9
:102BD0000E947E176C010E94650DC60104960E943A
:102BE000650DC60108960E94650DF501D182C0826F
:102BF000B0923402A092330286E090E00E947E17E9
:102C00006C010E94650D89E491E0F6019383828353
:102C100080E59DE095838483D0923002C0922F029C
:102C200086E090E00E947E176C010E94650D84E7AB
:102C300091E0F6019383828387E49DE0958384830A
:102C4000D0923202C092310243E050E062E070E084
:102C500081E090E00E94940043E050E061E070E089
:102C600082E090E00E94940041E050E062E070E079
:102C700083E090E00E94940043E050E061E070E067
:102C800084E090E00E949400F801F182E082FF2449
:102C9000F394F3820E947102F80164837583868342
:102CA0009783808191810E94140F60E084E00E94EC
:102CB000400260E085E00E94400260E086E00E9401
:102CC000400260E087E00E94400261E089E00E94EB
:102CD000400210921F02F09228028824839458EB3D
:102CE000A52E5BE0B52E60E0C62E60E0D62E7724E0
:102CF000739400913F05109140050E947102F80104
:102D000024813581468157811B012C01221A330A07
:102D1000440A550AB201A10180859185092E000C53
:102D2000AA0BBB0B84179507A607B70780F482810F
:102D3000882309F44FC012820E947102F801648353
:102D4000758386839783808191810E94140F80917F
:102D50002802882361F141E1E42E41E0F42E10E0E5
:102D600000E0F701219131917F013327F901E2550C
:102D7000FF4F8491F901E656FF4F9490F901EA570D
:102D8000FF4F6490662051F181110E94E901E62D08
:102D9000F0E0EE0FFF1FE458FF4FA591B491EC91C6
:102DA0009E22E1F00F5F1F4F04301105D1F6C114D0
:102DB000D10409F49ECF0E944601882309F499CFDB
:102DC0000E94000096CF80E00E94BA04882309F494
:102DD00048CEC3CE138270922802B9CF1092280237
:102DE00019A280E3800F88A3CE0180960E94D20EA4
:102DF00082E591E00E94D20EE0903F05F090400500
:102E00000E947102F70164837583868397838382AE
:102E1000B186A08680819181009749F20330110527
:102E200049F0000F111F000F111FFC0180819181DB
:102E3000800F911F0E94140FBACF052E97FB1EF42E
:102E400000940E94341757FD07D00E94471707FCD3
:102E500003D04EF40C94341750954095309521953D
:102E60003F4F4F4F5F4F08959095809570956195B6
:102E70007F4F8F4F9F4F08950E946F17A59F900D12
:102E8000B49F900DA49F800D911D11240895A1E27F
:102E90001A2EAA1BBB1BFD010DC0AA1FBB1FEE1FD4
:102EA000FF1FA217B307E407F50720F0A21BB30B1F
:102EB000E40BF50B661F771F881F991F1A9469F79B
:102EC00060957095809590959B01AC01BD01CF01F7
:102ED0000895EE0FFF1F0590F491E02D0994A29F35
:102EE000B001B39FC001A39F700D811D1124911DDE
:102EF000B29F700D811D1124911D08950F931F9392
:102F0000CF93DF938230910510F482E090E0E0915E
:102F10004305F091440530E020E0B0E0A0E03097B8
:102F200099F42115310509F44AC0281B390B2430C6
:102F30003105D8F58A819B816115710589F1FB0105
:102F400093838283FE0111C04081518102811381EC
:102F500048175907E0F04817590799F4109761F09E
:102F600012960C93129713961C933296CF01DF9111
:102F7000CF911F910F91089500934305109344053D
:102F8000F4CF2115310551F04217530738F0A9014C
:102F9000DB019A01BD01DF01F801C1CFEF01F9CFDB
:102FA0009093440580934305CDCFFE01E20FF31FBC
:102FB000819391932250310939832883D7CF20916F
:102FC000410530914205232B41F4209109013091B4
:102FD0000A01309342052093410520910701309169
:102FE00008012115310541F42DB73EB740910B0181
:102FF00050910C01241B350BE0914105F0914205E5
:10300000E217F307A0F42E1B3F0B2817390778F0BF
:10301000AC014E5F5F4F2417350748F04E0F5F1F1E
:103020005093420540934105819391939FCFF0E0E7
:10303000E0E09CCFCF93DF930097E9F0FC0132975B
:1030400013821282A0914305B0914405ED0130E056
:1030500020E01097A1F420813181820F931F2091ED
:103060004105309142052817390709F061C0F093F6
:103070004205E0934105DF91CF910895EA01CE1713
:10308000DF07E8F54A815B819E0141155105B1F7E3
:10309000E901FB83EA8349915991C40FD51FEC17CD
:1030A000FD0761F4808191810296840F951FE901EB
:1030B00099838883828193819B838A83F0E0E0E017
:1030C00012968D919C9113970097B9F52D913C9193
:1030D0001197CD010296820F931F209141053091E7
:1030E00042052817390739F6309751F510924405F3
:1030F00010924305B0934205A0934105BCCFD38302
:10310000C28340815181840F951FC817D90761F48C
:103110004E5F5F4F88819981480F591F51834083CB
:103120008A819B81938382832115310509F0B0CF79
:10313000F0934405E09343059ECFFD01DC01C0CF31
:1031400013821282D7CFFB01DC0104C08D91019064
:10315000801921F441505040C8F7881B990B0895FD
:10316000FC018191861721F08823D9F799270895CA
:103170003197CF010895FB01DC014150504048F0E8
:1031800001900D920020C9F701C01D92415050409E
:08319000E0F70895F894FFCF69
:10319800010160FFFFFFFF00004505800057415611
:1031A800450400050006000700000000007C01DC63
:1031B800000901C9013A0118012C0100000000E9C9
:1031C8000CCC0C440DA40CAC0C160D200D0000000A
:1031D80000420CDC00440DA30C303030342E7761F3
:1031E80076000D0A002F00534420776F726B6564D8
:1031F8003F00303030332E77617600303030362E55
:1032080077617600303030352E7761760053442070
:063218006661696C000014
:107E0000112484B714BE81FFF0D085E080938100F7
:107E100082E08093C00088E18093C10086E0809377
:107E2000C20080E18093C4008EE0C9D0259A86E02C
:107E300020E33CEF91E0309385002093840096BBD3
:107E4000B09BFECF1D9AA8958150A9F7CC24DD24C4
:107E500088248394B5E0AB2EA1E19A2EF3E0BF2EE7
:107E6000A2D0813461F49FD0082FAFD0023811F036
:107E7000013811F484E001C083E08DD089C08234E0
:107E800011F484E103C0853419F485E0A6D080C0E4
:107E9000853579F488D0E82EFF2485D0082F10E0AE
:107EA000102F00270E291F29000F111F8ED06801E7
:107EB0006FC0863521F484E090D080E0DECF843638
:107EC00009F040C070D06FD0082F6DD080E0C81688
:107ED00080E7D80618F4F601B7BEE895C0E0D1E017
:107EE00062D089930C17E1F7F0E0CF16F0E7DF06D8
:107EF00018F0F601B7BEE89568D007B600FCFDCFD4
:107F0000A601A0E0B1E02C9130E011968C91119780
:107F100090E0982F8827822B932B1296FA010C0160
:107F200087BEE89511244E5F5F4FF1E0A038BF0790
:107F300051F7F601A7BEE89507B600FCFDCF97BE46
:107F4000E89526C08437B1F42ED02DD0F82E2BD052
:107F50003CD0F601EF2C8F010F5F1F4F84911BD097
:107F6000EA94F801C1F70894C11CD11CFA94CF0C13
:107F7000D11C0EC0853739F428D08EE10CD085E9AC
:107F80000AD08FE07ACF813511F488E018D01DD067
:107F900080E101D065CF982F8091C00085FFFCCF94
:107FA0009093C60008958091C00087FFFCCF809118
:107FB000C00084FD01C0A8958091C6000895E0E648
:107FC000F0E098E1908380830895EDDF803219F02E
:107FD00088E0F5DFFFCF84E1DECF1F93182FE3DFCA
:107FE0001150E9F7F2DF1F91089580E0E8DFEE27F6
:047FF000FF270994CA
:027FFE00040479
:0400000300007E007B
:00000001FF
